:020000040800F2
:10000000204F00205D0200086B1B0008E11700086C
:10001000691B00083B080008952600080000000046
:100020000000000000000000000000009D0100082A
:100030007508000800000000F9010008D51F00083D
:1000400077020008770200087702000877020008AC
:10005000770200087702000877020008770200089C
:10006000770200087702000877020008770200088C
:10007000770200087702000877020008770200087C
:10008000770200087702000877020008770200086C
:10009000770200087702000877020008770200085C
:1000A000770200087702000877020008770200084C
:1000B000770200087702000877020008770200083C
:1000C000770200087702000877020008770200082C
:1000D00077020008A9250008770200081926000801
:1000E000770200087702000877020008770200080C
:1000F00077020008770200087702000877020008FC
:1001000077020008770200087702000877020008EB
:1001100077020008770200087702000877020008DB
:1001200077020008770200087702000877020008CB
:1001300077020008770200087702000877020008BB
:1001400077020008770200087702000877020008AB
:100150007702000877020008770200088926000865
:10016000770200087702000877020008770200088B
:1001700077020008770200087702000800000000FC
:100180007702000877020008DFF80CD000F0D4FAFC
:1001900000480047E5310008204F00202C4B19682B
:1001A0000868B0E8F04F80F30988BFF36F8F4FF015
:1001B000000080F3118870470000000008480068C4
:1001C000006880F308884FF0000080F3148862B65E
:1001D00061B6BFF34F8FBFF36F8F00DF00BF00BF6B
:1001E00008ED00E0DFF80C00016841F470010160E7
:1001F000704700BF88ED00E0EFF30980BFF36F8F19
:10020000134B1A681EF0100F08BF20ED108A20E96A
:10021000F04F106009B44FF0500080F31188BFF325
:100220004F8FBFF36F8F03F011FC4FF0000080F38E
:10023000118809BC19680868B0E8F04F1EF0100F6B
:1002400008BFB0EC108A80F30988BFF36F8F704746
:100250003C000020EFF3058070470000064880470F
:1002600006480047FEE7FEE7FEE7FEE7FEE7FEE79B
:10027000FEE7FEE7FEE7FEE77120000889010008BF
:100280002DE9F05F0546002092469B4688460646CB
:10029000814640241BE0284641464746224600F05E
:1002A00082F853465A46C01A914110D31146184657
:1002B000224600F069F82D1A67EB01084F462246E6
:1002C0000120002100F060F817EB00094E41201ECC
:1002D000A4F10104DFDC484631462A464346BDE826
:1002E000F09F40EA01039B0703D009E008C9121FF1
:1002F00008C0042AFAD203E011F8013B00F8013BE0
:10030000521EF9D27047D2B201E000F8012B491E0B
:10031000FBD270470022F6E710B513460A460446A2
:100320001946FFF7F0FF204610BD30B505462A46B6
:100330000B4612F8010B13F8014B08B1A042F8D09C
:100340001CB1002802D06D1CF1E7284630BD421CCC
:1003500010F8011B0029FBD1801A704730B50B46FD
:10036000014600202022012409E021FA02F59D42E5
:1003700005D303FA02F5491B04FA02F52844151EB9
:10038000A2F10102F1DC30BD202A04DB203A00FAA0
:1003900002F1002070479140C2F1200320FA03F3DC
:1003A000194390407047202A04DB203A21FA02F0DA
:1003B0000021704721FA02F3D040C2F1200291409F
:1003C0000843194670472DE9FE4F804681EA030035
:1003D000C00F0C46009021F0004123F00045B8EB1F
:1003E0000200A94105D24046214690461C460B46D4
:1003F000024623F00040104347D0270DC7F30A0000
:10040000C3F30A510290401A019040286BDAC3F3FB
:10041000130040F4801B0098924620B10023D2EBD9
:10042000030A63EB0B0B01985946C0F1400250469A
:10043000FFF7AAFF06460D4650465946019A00F0BE
:100440008DF910EB08006141002487EA115284EA1B
:10045000E7731A4340D0009A62B3019A012A4FEA27
:10046000075215DC001B61EB02014FF0004202EA6B
:100470000752CDE90042001C41F5801132462B465F
:1004800000F08DF903B0BDE8F08F40462146F9E752
:10049000001B61EB0201001C41F5801300185B4159
:1004A0002018A2F5001747EB030140EAD570B619F2
:1004B0006D4111E06D084FEA360645EAC0754FEA16
:1004C0000752001B61EB0201001C41F58011490835
:1004D0004FEA30000019514132462B4603B0BDE8C7
:1004E000F04F00F04DB90098012240000023D0EBFE
:1004F000020263EBE073009821464FEAE074B8EB28
:10050000000061EB0401E9E783F000435BE781F061
:10051000004158E72DE9FE4F81EA030404F000444E
:1005200021F0004100944FF0000B23F0004350EA0B
:1005300001045ED052EA03045BD0C3F30A54C1F352
:100540000A552C44A4F2F3340194A0FB0254C1F3E5
:10055000130141F48011C3F3130343F4801301FB2F
:10056000024400FB034E840A970A44EA815447EA96
:100570008357A4FB076802958D0A05FB07854FEAA0
:10058000932C04FB0C542705029D4FEA065847EABA
:100590001637B5EB08056EEB070C870E920E47EA8F
:1005A000811742EA8312A7FB0201B6EB0B0164EB51
:1005B00000042B0D43EA0C335E1844EB1C50DA4662
:1005C0005146E7FB0201C5F313044FEA0B3343EA3C
:1005D00014534FEA0432019C43EA0603A4F10C04CD
:1005E0000294009CCDE900B400F0D9F803B0BDE856
:1005F000F08F00200146F9E72DE9F04D81EA030470
:1006000004F0004B21F0004514464FF0000A23F09F
:10061000004150EA050220D054EA01021DD0C5F382
:100620000A570246C5F31303C1F31300C1F30A5678
:1006300040F4801543F48013A7EB0608101BD64640
:1006400008F2FD3873EB050002D308F1010801E060
:1006500092185B41B8F1000F03DA00200146BDE8B3
:10066000F08D00204FF48011064684460EE0171BE3
:1006700073EB050705D3121B63EB050306434CEA36
:10068000010C49084FEA300092185B4150EA01071B
:10069000EDD152EA030012D082EA040083EA050198
:1006A000084305D0101BAB4106D20122002306E00F
:1006B00000224FF0004302E06FF0010253101AEBEA
:1006C00006004CEB085110EB0A0041EB0B01BDE8B2
:1006D000F04D00F055B8C1F30A52C1F3130140F2D6
:1006E000FF3341F480119A4202DA0020014670473C
:1006F00040F233439A42A2F2334202DC5242FFF705
:1007000052BEFFF741BE000030B5041E71F1000477
:1007100004DB4FF00044404264EB0101141E73F10E
:10072000000405DB1C464FF00043524263EB040318
:10073000994208BF904230BD064C074D06E0E06884
:1007400040F0010394E8070098471034AC42F6D318
:10075000FFF71EFD883E0008A83E0008202A06DBA1
:10076000CB17203A41FA02F043EAE07306E041FA7F
:1007700002F3D040C2F1200291400843194670476D
:1007800010B5141E73F1000408DA401C41F1000199
:1007900092185B411A4301D120F0010010BD2DE9F0
:1007A000F04D92469B4611B1B1FA81F202E0B0FAE7
:1007B00080F220329046FFF7E7FD04460F4640EAFC
:1007C0000A0041EA0B0153465A46084313D011462A
:1007D00053EA010019D0C8F140025046FFF7E3FD8B
:1007E00005460E46504659464246FFF7CDFD0843A2
:1007F00005D0012004E020463946BDE8F08D0020F8
:10080000054346EAE0762C4337430A986305E40A39
:10081000A0EB08000022FD0A44EA47540A3002D542
:1008200000200146E9E7010510196941DDE90845A5
:1008300000196941BDE8F04DA2E7FEE770B54FF63B
:10084000FF7200234AF201050DE0C45C62400024FF
:10085000D6074FEA520200D06A40641CE4B2082C6A
:10086000F6D35B1CDBB28B42EFDBC2541844110A97
:10087000417070BD7047704790F83510022903D061
:100880008021416501207047052180F835100068FE
:10089000016821F001010160002070472DE9F84F47
:1008A00000224FF0010803254FF00F0E0B6808FAE5
:1008B00002F42340A3426ED14E68012E05D0022ED1
:1008C00003D0112E01D0122E12D186684FEA420CAD
:1008D00005FA0CF7BE43CF6807FA0CF73743876079
:1008E0004668A6430C79C4F3001494403443446032
:1008F000C668570005FA07FC8C6826EA0C06BC405F
:100900003443C4604C68022C01D0122C13D1D4089B
:1009100000EB8404A346D4F8209054074FEAD46A2D
:100920000EFA0AF629EA06090E6906FA0AF646EAF6
:100930000906CBF8206006680C7926EA0C0604F05C
:100940000304BC40344304604C68E40065D5364C75
:10095000266846F480462660246822F0030604F4E4
:1009600080440094314C3444A446D4F80848960797
:10097000370F0EFA07F6B4432D4EB04201D10026D0
:1009800024E02C4EB04201D101261FE02A4EB04295
:1009900002D102261AE040E0284EB04201D10326DF
:1009A00014E0274EB04201D104260FE0254EB0429C
:1009B00001D105260AE0244EB04201D1062605E009
:1009C000224EB04201D1072600E00826BE40264351
:1009D000CCF808681E4E34684F689C43FF0300D56E
:1009E0001C4334601A4C241D26684F689E43BF0385
:1009F00000D51E432660164E083634684F689C4367
:100A0000FF0200D51C433460114E0C3634684F6829
:100A10009C43BF0200D51C433460521C102AFFF4D3
:100A200045AFBDE8F88F0000443802400030014077
:100A3000000002400004024000080240000C024096
:100A4000001002400014024000180240001C024046
:100A5000003C01400AB1816170470904FBE70000D6
:100A600001488068704700002C000020024881681F
:100A700002781144816070472C0000200B4810B5AB
:100A8000016841F400710160016841F48061016016
:100A9000016841F480710160032000F073F80F20B9
:100AA00000F006F800F024F8002010BD003C0240E1
:100AB00070B50D4D04464FF47A712878B1FBF0F013
:100AC0000A490968B1FBF0F000F006FB48B9102CA8
:100AD00007D200222146501E00F034F800206C603E
:100AE00070BD012070BD00002C00002038000020E7
:100AF0000C4882B0016841F480410160006800F454
:100B0000804000900748001F016841F0805101605B
:100B10000068002200F0805000900F21901E02B06B
:100B200000F010B844380240002809DB00F01F0232
:100B3000012191404009800000F1E020C0F800113F
:100B400070470000F0B40E4B1B680C46C3F3022341
:100B5000C3F10705042D00D90425191D072901D269
:100B6000002300E0DB1E012606FA05F1491E2140A4
:100B700099409E40761E16403143F0BC01F09EBD68
:100B80000CED00E0064900F0070208684FF6FF038D
:100B9000184040EA0220034A1043086070470000F2
:100BA0000CED00E00000FA052DE9F0470E460500C7
:100BB00065D0DFF81481D8F80000F7B200F00F001C
:100BC000B04207D288F80070D8F8000000F00F009B
:100BD000B04254D128683D4C810712D5400703D557
:100BE000206840F4E05020602878000703D5206892
:100BF00040F4604020602068A96820F0F0000843BD
:100C000020602878C0072DD030496868083901284D
:100C100012D0022813D0032811D0096889070029AF
:100C20002DDA216821F0030101432160FFF718FF4D
:100C3000814641F2883A0EE009688903EFE70968C6
:100C40008901ECE7FFF70CFFA0EB0901514502D940
:100C50000320BDE8F0872068696800F00C00B0EB65
:100C6000810FEFD1D8F80010404601F00F01B142DA
:100C700007D90770006800F00F00B04201D00120D2
:100C8000E7E72878400705D52068E96820F4E050B8
:100C9000084320602878000706D52068296920F4D9
:100CA000604040EAC100206000F038F82168084A3E
:100CB000C1F30311515CC84006490860064800684A
:100CC000FFF7F6FE0020C4E7003C0240083802406F
:100CD000583E000838000020300000200448054934
:100CE00000680968044AC1F38221515CC84070471A
:100CF0003800002008380240683E000804480549D2
:100D000000680968044AC1F34231515CC840704729
:100D10003800002008380240683E0008154810B529
:100D2000006810F00C02144813D04110042A0FD0B0
:100D3000082A0ED10F4C241F2268236802F03F02BC
:100D40005B0207D52068C0F38810A0FB010106E014
:100D5000084610BD2168C1F38811A1FB00010023E2
:100D6000FFF78EFA2168C1F30141491C4900B0FB2D
:100D7000F1F010BD083802400024F4002DE9F84FCE
:100D800004006ED02078DFF83C93C007A9F1040579
:100D90004AD009F104000168C1F38101012908D09A
:100DA0000068C0F3810002280AD1D9F8000040028F
:100DB00006D52868800337D560680028E1D033E085
:100DC0006068B0F5803F10D0B0F5A02F286810D033
:100DD00020F480302860286820F480202860606833
:100DE000A8B1FFF73DFE06460DE0286840F48030CC
:100DF000F4E740F480202860F7E700BFFFF730FEFB
:100E0000801B642873D828688003F7D50CE0FFF7AF
:100E100027FE064605E000BFFFF722FE801B642880
:100E2000F0D828688003F7D42078DFF89C82800708
:100E30004FF0000A3ED5A348001D016811F00C0FC9
:100E400008D00068C0F3810002280BD1D9F8000057
:100E5000400207D42868800716D5E068012800D131
:100E600012E02BE1E068B8B10120C8F80000FFF7FC
:100E7000F7FD064605E000BFFFF7F2FD801B0228E4
:100E8000C0D828688007F7D52868216920F0F800C5
:100E900040EAC10028600DE0C8F800A0FFF7E0FDBF
:100EA000064604E0FFF7DCFD801B02281FD82868F7
:100EB0008007F7D42078000722D5824E83486169E5
:100EC000703671B101210160FFF7CAFD074604E0E9
:100ED000FFF7C6FDC01B022809D830688007F7D588
:100EE0000EE0C0F800A0FFF7BBFD074605E082E07A
:100EF000FFF7B6FDC01B02287DD830688007F7D405
:100F00002078400768D5DFF8BCB100270BF13C0B17
:100F1000DBF80000C0000BD4DBF8001041F080517A
:100F2000CBF80010DBF80000012700F080500090A3
:100F3000674E3068C00510D4306840F4807030606F
:100F4000FFF78EFD009005E0FFF78AFD0099401A3B
:100F5000022850D83068C005F6D55A4EA0686C36C5
:100F600001280FD00528306810D020F00100306033
:100F7000306820F004003060A068B8B1FFF770FD61
:100F800000900FE0306840F00100F4E740F004000A
:100F90003060F7E7FFF764FD0099411A41F28830AD
:100FA000814266D830688007F4D50EE0FFF758FD1F
:100FB000009007E0FFF754FD0099411A41F2883094
:100FC000814256D830688007F4D42FB1DBF8001086
:100FD00021F08051CBF80010A069C8B33949091D30
:100FE0000968C1F3810102294AD00228504607D07E
:100FF000C8F8600000E03CE0FFF732FD04463BE04B
:101000004746C8F86000FFF72BFD064605E000BF25
:10101000FFF726FD801B02282BD828688001F7D413
:10102000D4E907010843A16A2A4A490802EB0141B1
:10103000626A41EA8211084394F82C1040EA016187
:10104000C9F8001001203866FFF70AFD044606E0E3
:1010500036E000BFFFF704FD001B022809D828680E
:101060008001F7D52CE000BFFFF7FAFC001B022837
:1010700002D90320BDE8F88F28688001F4D41FE06E
:101080000128F7D0D9F80000E26900F4800191420C
:1010900014D1226A00F03F0191420FD147F6C0718E
:1010A000626A0140914209D1A26A00F44031914242
:1010B00004D1E16A00F07060884201D00120D9E7D4
:1010C0000020D7E70438024000004742800E474224
:1010D000007000400000FFFF10B5401EB0F1807F9F
:1010E00001D3012010BD4FF0E02460610F21601793
:1010F00001F0E4FA0020A06107202061002010BD6B
:1011000070B590F83C20012A32D0012480F83C4090
:10111000022280F83D2003685A689D6822F070061C
:101120000A6832435A60134B02689A4214D0B2F1F3
:10113000804F11D0104B9A420ED0104B9A420BD0D8
:101140000F4B9A4208D00F4B9A4205D00E4B9A4251
:1011500002D00E4B9A4204D1496825F0800319430E
:10116000916080F83D40002180F83C10084670BD39
:10117000022070BD00000140000400400008004053
:10118000000C0040000401400040014000180040F5
:1011900010B5040003D094F83D0010B107E0012021
:1011A00010BD002084F83C00204600F00DF802201D
:1011B00084F83D00211D206800F068FF012084F8BC
:1011C0003D00002010BD000008B5134A0168134817
:1011D000914207D1016841F020010160006800F0F0
:1011E00020000BE00E4A91420AD10C48001D016814
:1011F00041F400310160006800F40030009008BD47
:10120000084A9142FBD1016841F480710160006895
:1012100000F48070F2E70000001400404038024003
:10122000004401400020004010B586B0044614215F
:101230006846FFF76FF80E492068884215D10D48BF
:101240000021026842F008020260006800F0080015
:1012500005904FF4805000900220CDE90101CDE9C6
:10126000031069460448FFF719FB06B010BD0000E3
:101270000008004030380240000C024070B50446BF
:1012800090F83C000D4601280DD0012684F83C6002
:10129000022084F83D0042B1042A18D0082A2AD03E
:1012A0000C2A4DD139E0022070BD206800F060FFAB
:1012B0002068816941F0080181612068816921F01D
:1012C00004018161206881692A69114311E0206865
:1012D00000F07EFF2068816941F40061816120682F
:1012E000816921F480618161206881692A6941EA0C
:1012F0000221816124E0206800F0A0FF2068C1691C
:1013000041F00801C1612068C16921F00401C16197
:101310002068C1692A69114311E0206800F0C2FF0A
:101320002068C16941F40061C1612068C16921F48C
:101330008061C1612068C1692A6941EA0221C161F5
:1013400084F83D60002084F83C0070BD10B50400B6
:1013500003D094F83D0010B107E0012010BD00203B
:1013600084F83C00204600F00DF8022084F83D008F
:10137000211D206800F08AFE012084F83D00002035
:1013800010BD000008B500680649884208D106482B
:10139000016841F004010160006800F00400009061
:1013A00008BD0000000800404038024010B5044667
:1013B0000068012200F0CEFE0B492068884202D06E
:1013C0000A49884203D1416C41F4004141642068DC
:1013D000816801F00701062903D0016841F001018D
:1013E0000160002010BD0000000001400004014029
:1013F0007047000070B5026804461068D1685369F0
:1014000010F00F0F53D003F0010501F490762E4336
:101410005FD0C20705D0CA0503D5E26B42F00102D6
:10142000E263420705D5DA0703D0E26B42F002021D
:10143000E263820705D5DA0703D0E26B42F00402CB
:10144000E263020707D501F020022A4303D0E26BD2
:1014500042F00802E263E26B002A34D0800604D531
:10146000880602D5204600F05BFF20684069E16BEA
:10147000C0F3801001F008010143204624D000F0A1
:1014800041FF2068416949061AD5416921F04001B0
:101490004161606BA0B11B490165606BFFF7ECF91E
:1014A000002810D0606B016DBDE8704008478306CE
:1014B0000FD58B060DD52046BDE8704000F030BF3B
:1014C0002046FFF795FF70BDFFF792FF0020E06315
:1014D00070BD030606D50B0604D52046BDE8704056
:1014E00000F0FEBF4006F3D54806F1D5D16820468E
:1014F00021F04001D160202184F8391000F06FF90B
:1015000070BD0000F522000870B5040004D094F806
:101510003900002510B106E0012070BD84F8385074
:10152000204600F023F8242084F839002068C168A0
:1015300021F40051C160204600F03EFF206801699F
:1015400021F4904101612068416921F02A01416143
:101550002068C16841F40051C160E563202084F82F
:10156000390084F83A00002070BD0000F0B587B063
:10157000044614216846FEF7CDFE27684D494C4CC1
:1015800000224C4B1439022503264B484FF0070C20
:10159000A7421FD11C6844F010041C601B6803F0B4
:1015A000100305930B6843F001030B60096802AC5C
:1015B00001F0010105917102CDE9001584E84410A4
:1015C0006946FFF76BF9002205212520FFF7BAFADB
:1015D000252044E0374CDFF8E4E0241F77451AD19A
:1015E000236843F400332360236803F40033059336
:1015F0000B6843F001030B60096802AB01F00101C5
:1016000005910C21CDE9001583E844106946FFF7E8
:1016100045F907B0F0BD2A48874223D1206840F43D
:1016200080202060206800F480200590086840F049
:1016300002000860086802AB00F0020005904FF459
:101640004060CDE9000583E8441069461D48FFF776
:1016500025F9002205212720FFF774FA2720FFF73C
:1016600063FAD6E718488742D3D1186840F02000C3
:101670001860186800F020000590086840F0040029
:1016800008600868029200F004000590C020CDE9CF
:1016900000050820CDE9036069460C48FFF7FEF815
:1016A000002205214720FFF74DFA4720D7E7000029
:1016B0000010014044380240000002400044004055
:1016C00000480040000402400014014000080240AD
:1016D00090F83A30202B22D1F9B1F2B190F838309D
:1016E000012B1CD081628285C2850021C163222228
:1016F00080F83A2080F838100168CA6842F4807295
:10170000CA6001684A6942F001024A610068C16822
:1017100041F02001C1600020704701207047022085
:10172000704770472DE9F843044690F839001F468A
:1017300016460D46202850D1B5B1AEB194F8380008
:1017400001284AD0012084F838004FF00008C4F87E
:101750003C80212084F83900FFF782F9A684814675
:10176000E68484F8388026E00120BDE8F883E08C28
:10177000401EE084A0684B46B0F5805F4FF0000249
:101780004FF080012046009703D000F0DAFEE8B960
:101790000DE000F0D6FEC8B928882168C0F3080023
:1017A0004860206908B16D1C05E0AD1C03E02168AC
:1017B00015F8010B4860E08C0028D8D14B46002278
:1017C00040212046009700F0BCFE08B10320CCE782
:1017D000202084F839000020C7E70220C5E77047C1
:1017E000FEE7000010B58EB0012221492148FFF725
:1017F0006FFF1F490122491E1F48FFF769FF0021A3
:101800001E48FFF7D3FD002001F0E2FF01F0C6FC07
:1018100001F010FC64211A48FEF77CFD144C0020F6
:10182000641E2121A06017481C2201804B214180A9
:1018300040F2593181804FF4AB71C18040F22B21CD
:10184000018111496846FEF74CFD0021684601F010
:101850004DFD0D49A0611C221C3107A8FEF741FD7A
:10186000002107A801F042FDE0610EB010BD0000AC
:1018700001000020E008002060090020BC040020D6
:101880003C010020F0490020203E000870B586B0E1
:1018900014216846FEF73EFD2E480024016841F001
:1018A00020010160016801F020010591016841F00B
:1018B00080010160016801F080010591016841F03B
:1018C00001010160016801F001010591016841F029
:1018D00002010160016801F002010591016841F017
:1018E00008010160016801F008010591016841F0FB
:1018F00004010160016801F004010591016841F0F3
:10190000400101600068144E00F0400040F2FF35D5
:101910000590002229463046FFF79CF801200095EB
:10192000CDE90104694630460394FEF7B7FFFF2076
:10193000CDE90004694609480294FEF7AFFF4FF471
:10194000C060CDE90004694605480294FEF7A6FF91
:1019500006B070BD3038024000140240000C024056
:10196000001802400C4810B50A49016040F28F612E
:101970004160002140F2E732C0E902120161816159
:10198000FFF706FC002803D0BDE81040FEF773BF48
:1019900010BD0000004401403C0500200B4810B57C
:1019A00009490160A721416000214FF6FF72C0E99B
:1019B000021201618161FFF7EBFB002803D0BDE853
:1019C0001040FEF758BF10BD002000407C050020ED
:1019D00010B58AB0002407941C2168460894FEF7CD
:1019E00099FC1648144901601421C0E901146321CF
:1019F000C0E903148461FFF7A9FC08B1FEF73BFFBF
:101A0000079407A90D480894FFF77AFB08B1FEF781
:101A100032FF6020CDE900040294002269460748A5
:101A20000494FFF72BFC08B1FEF725FF0348FFF7EE
:101A3000FBFB0AB010BD000000080040BC04002001
:101A40001CB500240F4800940D490194016044F234
:101A50009F11C0E901144FF6FF718461C160FFF767
:101A600097FB08B1FEF707FF00946946054801940B
:101A7000FFF746FB002801D0FEF7FDFE1CBD00006D
:101A800000140040FC0400200C4810B50A49016015
:101A90004FF416514160002181600C22C160C0E901
:101AA00004128161C161FFF72FFD002803D0BDE85A
:101AB0001040FEF7E0BE10BD00100140E00800201D
:101AC0000C4810B50A4901604FF4E1314160002132
:101AD00081600C22C160C0E904128161C161FFF71D
:101AE00013FD002803D0BDE81040FEF7C4BE10BDB2
:101AF00000440040200900200C4810B50A4901604C
:101B00004FF4E1314160002181600C22C160C0E9E5
:101B100004128161C161FFF7F7FC002803D0BDE822
:101B20001040FEF7A8BE10BD00480040600900202C
:101B30000C4810B50A4901604FF4E13141600021C1
:101B400081600C22C160C0E904128161C161FFF7AC
:101B5000DBFC002803D0BDE81040FEF78CBE10BDB2
:101B600000140140A0090020FEE770470A46014624
:101B70004FF6FF730148FFF7D5BD0000E0080020D5
:101B8000104810B5022101700322427000228270B9
:101B9000C17002710121417125218171F921C17149
:101BA0000821FFF7E3FF642001F0D8FA0649054851
:101BB0000A38CA78027009794170008840BA00B2C8
:101BC00010BD0000BE00002004020020104810B527
:101BD000032101704170002181700622C2700171E1
:101BE0000121417165218171E921C1710821FFF74E
:101BF000BDFF642001F0B2FA064905481238CA78E0
:101C0000027009794170008840BA00B210BD00002E
:101C1000CE00002004020020104810B50121017000
:101C200003224270002282700623C3700271417148
:101C3000642181710B21C1710821FFF797FF642096
:101C400001F08CFA064905481438CA7802700979FF
:101C50004170008840BA00B210BD0000CE000020E4
:101C60000402002010B51A49044601200870032020
:101C7000487000208870C870087102204871C42024
:101C800088710B20C87108211148FFF76FFF64208D
:101C900001F064FA0F490E4810384A7902708A79C7
:101CA0004270821CCB78137009795170008840BA59
:101CB00000EE100AB8EE400A84ED000A108840BA1F
:101CC00000EE100AB8EE400A84ED010A10BD0000D3
:101CD000C6000020040200202DE9F04F06463C48D3
:101CE0004FF0000A0F46544683460546C0F800A050
:101CF000305D01F09BFADBF800105846012901D154
:101D0000315D39550168022901D1315D39550168CC
:101D1000042902D1297B4900B9700168052921D124
:101D200000212C4AC5F808A018E000BFD5F810C063
:101D3000AB68634432F813304FEA132C7B1883F8F6
:101D400003C0D5F808C0D5F81080C44412F81CC0F0
:101D500083F804C0AB685B1C891CAB60EB68B1EB1B
:101D6000430FE3DB01680C2901D1315D3955DBF804
:101D700000000D2817D1C5F808A0D5E903290021D6
:101D80005046DFF850E00BE0731800EB090893F8B9
:101D900008C0DB79401C0CEB03232EF81830891C9B
:101DA0009142F1DBA860641C0A2CA1DB7078032847
:101DB00007D010280AD106213846BDE8F04FFEF7BB
:101DC0003DBDE868032101EB4001F5E7BDE8F08F78
:101DD000A0000020F0490020DFF87491DFF878B10E
:101DE00008B5DFF870A1ABF164074FF00008A9F166
:101DF00020045A4EFFF710FFA080642001F0AEF9D6
:101E0000FFF7BEFE6080642001F0A8F95048FFF79C
:101E100029FF642001F0A2F9FFF7D8FEE08099EDD8
:101E2000000ABCEEC00A10EE101A318099ED010ACA
:101E3000BCEEC00A10EE100A7080A088B0806088E6
:101E4000F080DAF80000C068800605D4404901221D
:101E500020394048FFF73CFCE06801285FD10020B2
:101E60005D46295C3954401C6428FAD33A493A4803
:101E70006431FFF731FF6878032802D0102824D09E
:101E80004BE0354806216438FEF7D8FCB979A879CB
:101E9000814242D1F879E97988423ED1C4F8148070
:101EA0000BE02D494FF6FF736431014401222948AC
:101EB000FFF738FC6069401C60616979052000EB20
:101EC000410160698142ECDC27E0A97922480931AF
:101ED00000916438891EFEF7B1FC00997A186818E1
:101EE00012F8023C10F8021C8B4216D112F8011CA9
:101EF00010F8010C814210D1174D40466435C4F8EA
:101F0000148029184FF6FF7301221248FFF70AFCCC
:101F10006069401C60610728F3DDC4F80C8064210F
:101F20000D48FEF7F7F9C4F808806088454628B9DF
:101F300009486421C830FEF7EDF925613088B0F515
:101F4000FF7F01D301F02AF90A2001F0C3F951E71C
:101F500020000020600900203C010020F049002002
:101F60001A4D1B4C608920B9012240212846FEF7FA
:101F700071FD6089012804D1002240212846FEF726
:101F800069FDA08920B9012280212846FEF762FD63
:101F9000A089012804D1002280212846FEF75AFD9D
:101FA000E08920B9012220212846FEF753FDE0896F
:101FB000012804D1002220212846FEF74BFD20896C
:101FC00001F006FC012001F085F9CBE70014024086
:101FD000F049002010B5FEF749FD01F04DFE012843
:101FE00003D0BDE8104001F0D9BD10BD30B593B0AD
:101FF00030216846FEF78EF914210CA8FEF78AF905
:1020000019480025016841F080510160006800F026
:10201000805011901548016841F4804101600068CA
:10202000022400F4804011900120039010200490BD
:10203000009406940820CDE90750A820CDE90904B2
:1020400004200B906846FEF799FE0CA90F2081E84A
:1020500031004FF4A0500F90E002109005210CA821
:10206000FEF7A2FD13B030BD4038024000700040C2
:102070000548016841F47001016003494FF00060B8
:10208000803908607047000088ED00E0F0B5026814
:10209000254C264D264E274F274B4FF0804CA04213
:1020A00009D0604507D0A84205D0B04203D0B8425D
:1020B00001D0984204D122F0700E4A6842EA0E0222
:1020C000A0421BD0604519D0A84217D0B04215D00D
:1020D000B84213D0984211D0184DA8420ED0184DD6
:1020E000A8420BD0174DA84208D0174DA84205D0E2
:1020F000164DA84202D0164DA84203D122F44075D5
:10210000CA682A434D6922F080022A4302608A6825
:10211000C2620A688262A04201D0984201D1096974
:10212000016301214161F0BD000001400004004055
:1021300000080040000C0040000401400040014045
:10214000004401400048014000180040001C0040CD
:102150000020004010B501F01F030121046A9940DE
:102160008C430462016A9A401143016210BD000071
:10217000F0B5026A22F001020262036A42688469D1
:10218000124E24F073050C682C4323F002058B6873
:102190002B430D4DA84201D0B04205D123F00807D2
:1021A000CB683B4323F00403A84201D0B04205D1E1
:1021B0004D6922F4407215438A692A434260846162
:1021C000496841630362F0BD000001400004014022
:1021D000F0B5026A22F010020262026A4368846962
:1021E0000D6824F4E64444EA05248D6822F02002B8
:1021F00042EA05120F4D104EA84201D0B04206D15E
:10220000CF6822F0800242EA071222F04002A84280
:1022100001D0B04207D14D6923F4406343EA8503FE
:102220008D6943EA85034360846149688163026282
:10223000F0BD00000000014000040140F0B5026A5A
:1022400022F480720262026A4368C46922F4007256
:1022500024F073050C68124E2C438D6842EA052267
:102260000E4DA84201D0B04206D1CF6822F40062E0
:1022700042EA072222F48062A84201D0B04207D18C
:102280004D6923F4405343EA05138D6943EA05136E
:102290004360C4614968C1630262F0BD000001404F
:1022A0000004014030B5026A22F480520262046ADE
:1022B0004268C3690D6823F4E64343EA05238D6849
:1022C00024F4005444EA0534084DA84202D0084DD5
:1022D000A84204D14D6922F4804242EA851242604C
:1022E000C36149680164046230BD00000000014020
:1022F0000004014010B5806B0021C185C184FFF747
:1023000077F810BD0168CA6822F49072CA6001684B
:102310004A6922F001024A61202180F83A10704790
:1023200010B590F83A10222901D0022010BD816822
:10233000B1F5805F11D00169002901681FD049689B
:1023400001F07F03816A4A1C82620B70C18D491EB5
:102350000904090CC18518D02BE00269816A002AA2
:102360000268526805D0D2B20A80816A491C816233
:10237000ECE7C2F308020A80816A891CF7E74A6821
:10238000816A4B1C83620A70E0E70168CA6822F028
:102390002002CA600168CA6822F48072CA600168BB
:1023A0004A6922F001024A61202180F83A10FFF7C1
:1023B000B8F9002010BD00002DE9F0410446006886
:1023C0000169E26821F44051114301612169A0686B
:1023D000E26908436169114308432168CA6849F208
:1023E0000C639A430243CA6020684169A26921F4E0
:1023F000407111434161E069192764253226B0F527
:10240000004F354A354920684FF0000806D0884211
:1024100001D0904236D1FEF771FC35E0884201D000
:10242000904202D1FEF76AFC01E0FEF757FC6168BA
:102430004A18A0FB070148EB0803FDF721FF0146FE
:10244000B0FBF5F00201B1FBF5F06FF01803584353
:1024500001EB800006EBC000B0FBF5F000F0F800E7
:1024600002EB4002B1FBF5F0584301EB800006EBB4
:10247000C000B0FBF5F000F0070021681044886050
:10248000BDE8F081FEF72AFC61688B0F8A00A0FB93
:102490000701FDF7F5FE0146B0FBF5F06FF01802FD
:1024A000504301EB800006EB0010B0FBF5F000F0AC
:1024B000F002B1FBF5F002EB0012B1FBF5F06FF0AA
:1024C0001803584301EB800006EB0010B0FBF5F059
:1024D00000F00F00D1E7000000140140001001409F
:1024E00090F83910212901D0022070478168B1F598
:1024F000805F016A0BD04A1C026202680978516051
:10250000C18C491E0904090CC1840ED017E009884A
:102510000268C1F30801516001690029016A02D013
:10252000491C0162ECE7891CFBE70168CA6822F0DC
:102530008002CA600068C16841F04001C1600020AB
:1025400070472DE9F041984617460E460446069D11
:102550001DE0681C1BD02DB1FEF782FAA0EB08002D
:10256000A84214D92068C16821F4D071C1602068E4
:10257000416921F001014161202084F8390084F88B
:102580003A00002084F838000320BDE8F08120687C
:10259000006836EA000004D00020B842D9D00020FC
:1025A000F3E70120F9E7000070B51648FEF722FFB7
:1025B0001548174C154D0178206800262954401CF9
:1025C0002060642804DD64212846FDF7A3FE266010
:1025D00001220D490B48FFF77BF8687803280BD1DF
:1025E000AA7801200B49022A07D0042A04D12268C4
:1025F000092A01D12660086070BD2268072AF9D037
:1026000070BD0000E008002001000020040200204E
:10261000100000202800002070B51648FEF7EAFEE2
:102620001548174C154D0178206800262954401C88
:102630002060642804DD64212846FDF76BFE2660D7
:1026400001220D490B48FFF743F8687801210D4A34
:1026500003280BD0102808D1A879002805D02368BA
:102660000930984201D12660116070BD20680828A9
:10267000F9D070BD60090020000000203C0100205E
:10268000080000200C0000200148FEF7B3BE000047
:10269000A0090020FEE7000037B514460846064BA7
:1026A0006A46214600F0ECF804466946002000F036
:1026B0007EFC20463EBD0000AF2F00080907090E32
:1026C000002804DB00F1E02080F80014704700F0DF
:1026D0000F0000F1E02080F8141D704702E008C8E8
:1026E000121F08C1002AFAD170477047002001E08C
:1026F00001C1121F002AFBD1704700002DE9FF5FC6
:1027000082B00021DDE90430020DDDF840B0034362
:1027100018D044F61050A2F2FF324243151411981B
:1027200001281FD0A5EB0B00401C5FEA000A4FF008
:1027300000064E4FDFF83891B046504615D5CAF125
:10274000000413E0119801244AA3012801D16FEA83
:102750000B010298119AC0E90031C0E9024206B0AB
:10276000BDE8F09FCBF10000DFE704460021404ABE
:10277000491842EB0450CDE9001012E0E00707D001
:1027800032463B4640464946FDF7C4FE80468946F0
:1027900032463B4610461946FDF7BCFE06460F463C
:1027A0006410002CEAD1DDE90401DDE90023BAF16F
:1027B000000F06DAFDF7AEFE42464B46FDF7AAFED5
:1027C00005E0FDF719FF42464B46FDF715FF0446AD
:1027D0000E460022284BFDF797FF03D84FF0FF303D
:1027E000014607E00022254B20463146FDF7EBFD70
:1027F000FDF771FF102409E0002C0ADB0A220023F8
:10280000FDF73EFD039B30321A55641E50EA01026B
:10281000F2D1641C039AC4F111031444119A012AE1
:1028200003D0012208430DD10AE0084304D0002060
:102830004FF0110B119072E7A3EB0B056D1E0DE02D
:102840005B4504DD4FF0000205F1010504E003DA09
:102850004FF00002A5F10105002AECD00298119971
:10286000C0E90231C0E9004579E7000000001440EA
:102870000000F03F300000000000F0430000E03FA7
:102880002DE9FF4F95B09B468946064600250FE28D
:10289000252877D100242746F84A0121059400E035
:1028A000044316F8013F203B01FA03F01042F7D130
:1028B00030782A2811D06FF02F033078A0F1300241
:1028C000092A16D8059A44F0020402EB820203EBAF
:1028D00042021044761C0590EFE759F8042B05924C
:1028E000002A03DA504244F40054059044F00204F4
:1028F000761C30782E2816D116F8010F44F0040407
:102900002A280DD06FF02F023078A0F13003092B68
:1029100009D807EB870302EB4303C718761CF3E7DC
:1029200059F8047B761C30786C280FD006DC4C28D4
:1029300017D068280DD06A2814D104E0742810D06C
:102940007A280FD10DE044F400140AE044F4801416
:1029500001E044F440147278824202D104F58014FC
:10296000761C761C307866280BD013DC582877D07C
:1029700009DC002875D04528F6D04628F4D0472831
:102980001AD19DE118E0632835D0642879D06528F4
:1029900012D195E1702873D008DC6728F1D069283E
:1029A0006FD06E280DD06F2806D1B5E073282CD0DB
:1029B000752875D0782874D05A46179990476D1CA1
:1029C00075E1C4F30250022809D003280DD0D9F8CC
:1029D000001004280DD00D6009F1040967E1D9F851
:1029E0000010EA17C1E90052F6E7D9F800100D808F
:1029F000F2E70D70F0E719F8041B8DF800100020C5
:102A00008DF80100EA46012003E059F804AB4FF0CD
:102A1000FF3061074FF0000102D40DE008F1010121
:102A20008846B9420FDA8045F8DB1AF80810002909
:102A3000F4D108E008F1010188468142FADB1AF876
:102A400008100029F6D105985B46A0EB080721463F
:102A50003846179A00F094FA284400EB080507E07E
:102A60004DE029E10DE01AF8010B5A4617999047FD
:102A7000B8F10108F7D25B4621463846179A13E1B0
:102A800042E00A220092C4F302524FF0000A022AE6
:102A900008D059F804CB032A4FEAEC710AD00DE0B4
:102AA00029E02AE009F1070121F00702F2E802C15A
:102AB000914609E00FFA8CFC4FEAEC71042A03D12D
:102AC0004FFA8CFC4FEAEC71002907DA0A46002124
:102AD000DCF1000C61EB02012D2202E0220504D59D
:102AE0002B228DF80420012203E0E20701D02022EE
:102AF000F7E7904659E00A2102E010220DE010218C
:102B00004FF0000A00910BE010224FF0000A44F051
:102B100004040827009203E008224FF0000A009204
:102B2000C4F30252022A05D059F804CB0021032A2B
:102B300008D009E009F1070121F00702F2E802C11B
:102B4000914605E01FFA8CFC042A01D10CF0FF0C21
:102B50004FF00008220728D5702806D0009B83F08C
:102B6000100353EA0A0305D00EE040228DF804203A
:102B7000012208E05CEA010206D030228DF8042030
:102B80008DF8050002229046009B83F0080353EA6B
:102B90000A030AD15CEA010201D1620705D530229D
:102BA0008DF804204FF001087F1E582804D034A06F
:102BB00003900EA802900DE036A0F9E75346604658
:102BC000009AFDF75DFB84460398825C0298401EE4
:102BD000029002705CEA0100F0D1029806A9081A7E
:102BE00000F1200A600702D524F4803400E00127B8
:102BF000574502DDA7EB0A0000E0002000EB0A01C8
:102C0000009005984144401A0590E00306D45B46C5
:102C10002146179A059800F0B3F90544002706E00D
:102C200001A85A46C05D179990476D1C7F1C474507
:102C3000F6DBE0030CD55B462146179A059800F0B9
:102C40009FF9054404E030205A46179990476D1CBF
:102C50000099481E00900029F5DC08E002980299CE
:102C60005A460078491C0291179990476D1CBAF199
:102C70000001AAF1010AF1DC65E100000928010068
:102C800030313233343536373839616263646566E2
:102C900000000000303132333435363738394142A4
:102CA000434445460000000000F058F90544761CF6
:102CB000307800287FF4ECAD19B02846BDE8F08FDD
:102CC000620700D4062709F1070222F0070CFCE88E
:102CD0000223E14603F000485FEA080C02D00FF23D
:102CE000702C0DE05FEA045C02D50FF2682C07E05F
:102CF0005FEAC47C02D00FF2602C01E0AFF2700CEE
:102D00004FF0FF3823F00043CDF850C065280CD0B9
:102D100006DC452809D046281DD047283DD13DE096
:102D2000662818D067287ED138E00021112F01DBFA
:102D3000112000E0781CCDE9000106A90EA8FFF7DC
:102D4000DDFCDDE90F010E9A03910021009207F1ED
:102D5000010A04914DE04FF000400097CDE90110C9
:102D600006A90EA8FFF7CAFCDDE90F0203920E9B2D
:102D700011990022DDF80CA00093049211B9791C7E
:102D800000EB010AB7EB0A0004D4C0F1FF3007F1F1
:102D9000010A0490AAEB0700019044E0012F00DA39
:102DA00001270021112F01DD112000E03846CDE977
:102DB000000106A90EA8FFF7A1FCDDE90F010E9A9C
:102DC0000391002104910092BA4621070CD4039983
:102DD000514500DA8A46BAF1010F05DD009AAAF1E1
:102DE0000101515C302908D0B84202DA10F1040F19
:102DF00006DA0121CDE9011015E0AAF10101E9E7A8
:102E0000002805DC049901440491AAEB000102E0CA
:102E1000411C514500DD8A460499401A401C01902E
:102E20004FF000400290200704D40198504501DB88
:102E3000CDF8048000208DF84F0002980DF14F0767
:102E4000B0F1004F25D02B200E9002984FF00208D1
:102E500000280CDA404202902D200E9007E00A2153
:102E60000298FDF77BFA3031029007F8011DB8F1A6
:102E70000001A8F10108F2DC02980028EFD1791EC8
:102E80000E980870307800F0200040F0450007F8F8
:102E9000020D12A8C01B00F107081498007800B1B9
:102EA000012000EB0A01019801EBE0710598414413
:102EB000401A401E0590E00306D45B462146179A4F
:102EC000059800F05DF805441498007818B15A464A
:102ED000179990476D1CE00324D55B462146179A4D
:102EE000059800F04DF805441CE00498002807DB25
:102EF000DDE90301884203DD0098405C179901E099
:102F0000179930205A469047049805F10105401C56
:102F100004900198401E019004D12E205A46179922
:102F200090476D1CBAF10001AAF1010ADDDC05E051
:102F300017F8010B5A46179990476D1CB8F100011C
:102F4000A8F10108F4DC5B462146179A0598ABE628
:102F50002D0000002B000000200000002DE9F041B2
:102F6000044600251E461746880404D405E0394669
:102F70002020B0476D1C641EF9D52846BDE8F081BD
:102F80002DE9F041044600251E469046C80301D5B0
:102F9000302700E02027880404D505E04146384664
:102FA000B0476D1C641EF9D52846BDE8F0810A685B
:102FB000531C0B6010707047064A014600201288AF
:102FC000130406D5044BC2F30E0298541846FDF7BD
:102FD000ACB970479C000020E00900202DE9F041C9
:102FE000114D884600260146144637462E800FA014
:102FF00000F0CEFBB8F1000F13D06CB911E00A203D
:1030000000F0ACF82888000406D54046FFF7D4FF4E
:1030100008B12CB105E02F80641E2404240CEED1ED
:1030200001263046BDE8F0819C00002025730D0A82
:1030300000000000AFF3008070B54FF4FA64204642
:1030400000F08CF8142221A121A0FFF7C7FF204631
:1030500000F084F832221DA11FA0FFF7BFFF40F649
:10306000B835284600F07AF8142218A11DA0FFF701
:10307000B5FF284600F072F8142214A11CA0FFF737
:10308000ADFFA01000F06AF8C82210A11BA0FFF746
:10309000A5FF284600F062F8C8220CA11FA0FFF788
:1030A0009DFF204600F05AF8C82208A124A0FFF78F
:1030B00095FF204600F052F8142204A124A0FFF747
:1030C0008DFF601000F04AF870BD00004F4B00000B
:1030D00041542B525354000041542B43574D4F44FD
:1030E000453D310041542B43574C415000000000F6
:1030F00041542B4349504D55583D300041542B43CA
:10310000574A41503D22555345524E414D45222C80
:1031100022504153535750524422000041542B43F4
:10312000495053544152543D22544350222C223191
:1031300032372E302E302E31222C383038360000E7
:1031400041542B4349504D4F44453D310000000050
:1031500041542B43495053454E4400000E49002230
:103160000B685A620A68136843F00103136000EBAE
:1031700080020868416AB1EB420FFBD3016A41F259
:103180001112114207D1016A9210114203D1016854
:1031900021F0010101607047FC04002010B5104CC3
:1031A000012251022046FDF755FC01224021204614
:1031B000FDF750FC012280212046FDF74BFC012247
:1031C00011022046FDF746FC012210212046FDF7A2
:1031D00041FC20460122BDE810402021FDF73ABC09
:1031E0000014024010B5FDF749FCFEF7FFFEFEF7A4
:1031F0004DFBFEF7EDFBFEF723FCFEF7B3FBFEF7FE
:10320000CDFBFEF741FCFEF75BFCFEF775FCFEF71D
:103210008FFCFEF7E7FA00F064F8002010BD0146CD
:103220000020842900D0C81C704700002DE9F04719
:10323000264B274C1946D3F800C04A68D1E90267EB
:103240001546521C4FF0000A4FF06409BCF10E0FF6
:103250000AD2DFE80CF0070B13172325092A2709E8
:1032600009092E25012822D0BDE8F087032803D0C4
:103270001028F9D10C201AE0022018E06055032034
:103280004A6014E060554A60032AEDDDC1F804A0ED
:1032900060780861E078C860042008E0052006E056
:1032A000BE42E1D1C3F80090DEE74FF0FF30186076
:1032B000DAE760554A60042AD6DDC1F804A06078D8
:1032C00008612079C8600D20F1E70000A00000200F
:1032D000B84A002010B500B9012000F053FB0020CF
:1032E00010BD10B500F074FB002010BD7FB50D4679
:1032F00004464169B0F9080081B1A16971B1FFF7D5
:103300008EFFD4E905128DE80700D4E900102B46A2
:10331000226900F086FC039004B070BDFFF77FFFC8
:1033200003A9CDE90001208A2B4682B2D4E900101E
:1033300000F04AFC012801D00020EDE70398EBE7FC
:103340002DE9F041184C0F46054666692068001DBE
:1033500000F054FA38B9206890F82C100120884009
:10336000A1698143A161681C07D137B12168BDE81B
:10337000F0410E48091D00F085BA20683544B54279
:103380004560216805D2A068BDE8F041091D00F044
:1033900061BA6068091D00F05DFA206B854200D2B9
:1033A0002563BDE8F08100003C000020DC0D00201A
:1033B0002DE9F041054600F071FA2E4C2069401CC1
:1033C000206120682C4F10B1E06940B32DE02560EA
:1033D0002069012829D1002606EB860007EB800032
:1033E00000F02AFA761C072EF6D323488C3000F022
:1033F00023FA2148A03000F01FFA1F48B43000F033
:103400001BFA1D48C83000F017FA1B48DC3000F0EA
:1034100013FA19488C3060601430A06005E0206811
:10342000E96AC06A884200D82560E06A401CE06210
:10343000E96A0120A26988401043A06101EB810084
:1034400007EB8000291D00F01DFA00F047FAE06943
:1034500000280CD02068E96AC06A884207D2074970
:103460004FF080500860BFF34F8FBFF36F8FBDE800
:10347000F08100003C000020000D002004ED00E081
:1034800010B5044690F8510058B101280CD002281C
:103490000FD0502080F31188BFF34F8FBFF36F8F91
:1034A000FEE7206B00F02EFA2046BDE8104000F049
:1034B00029BA10BD10484FF47051420706D0C01D04
:1034C0000D4920F00700411AC1F570510B4A002345
:1034D0000144C2E900030839103A21F007011160E4
:1034E0004B600B600B1AC0E9001393604FF0004073
:1034F0005360D06070470000F00D0020880000206D
:10350000144E154CA6F1C8074FF08058DFF84C90C8
:1035100012E000BF00F0C2F9F068C568281D00F095
:103520006DF92069401E2061E068401EE06000F0F7
:10353000D5F92846FFF7A4FFE0680028EAD13868EB
:103540000128F9D9C9F80080BFF34F8FBFF36F8FFF
:10355000F2E70000C80D00203C00002004ED00E070
:103560002DE9F0479A46DDE9098481466FF00303AF
:10357000206B03EB82021044089E20F007077807B7
:1035800007D0502080F31188BFF34F8FBFF36F8FA8
:10359000FEE7002561B1002023180A5C83F834207F
:1035A0000A5C12B1401C1028F6D384F8435001E0A5
:1035B00084F83450072E00D30626E662C4E911656C
:1035C000201D00F044F904F1180000F040F92461D6
:1035D000C6F107006462A061E56484F85050524669
:1035E0004946384600F0BEF82060B8F1000F01D01F
:1035F000C8F80040BDE8F08730B5114900E0114639
:103600000A688242FBD34B685C18844203D140684D
:1036100018444860084643681C18944209D1084C75
:10362000103C2468A24209D052681A4442600A68D9
:1036300012680260814200D0086030BD0460F9E782
:103640008800002006484168096829B14168C968B6
:10365000C9684968016370474FF0FF31FAE700001D
:103660003C00002008484068401C4FF0500080F3A8
:10367000118804D0BFF34F8FBFF36F8FFEE7BFF306
:103680004F8FBFF36F8FFEE7900000202DE9F041D0
:103690000546002700F0D2F9314E306808B9FFF72F
:1036A00009FFF06805424BD1C5B3083568070ED055
:1036B00005F00700C0F108000544680707D0502056
:1036C00080F31188BFF34F8FBFF36F8FFEE72DB3E9
:1036D0007068854234D82248103001460C6801E0F9
:1036E00020460C466168A94202D221680029F7D120
:1036F00031688C4224D0076821680160606808370F
:10370000411B10290FD96019420708D0502080F3BF
:103710001188BFF34F8FBFF36F8FFEE710E041605A
:103720006560FFF769FF61687068401A7060B26891
:10373000904200D2B060F06801430020C4E900016B
:1037400000F00CFB780707D0502080F31188BFF3FE
:103750004F8FBFF36F8FFEE73846BDE8F081000062
:103760007800002010B5031F4FF080741C601B1FF1
:1037700021F001011960191F044B0B6014390A6014
:10378000091F6FF0020244380A6010BD6536000858
:103790000FB40D4870B505AA0499FEF77DFF0A48DD
:1037A000FCF7D5FD81B2094A0020074B141D06E045
:1037B00015686D06FCD51D5C2560401C80B28842F2
:1037C000F6D370BC5DF814FBC00500200048004033
:1037D00000B587B06021CDE90010002002900246BC
:1037E000049069460448FDF749FD00210248FDF7B1
:1037F000DDFD07B000BD0000BC040020D0E90132AF
:1038000001699A60D0E901235A604A68824201D175
:1038100082684A60002202610868401E08600868E9
:1038200070470000034B036003F1540008608020E0
:10383000106070476802002000F108014FF0FF326D
:10384000C0E90112C16001610021016070470021DF
:103850000161704730B50B685A1C02D000F10802B4
:1038600002E0026904E02246546825689D42FAD9C4
:1038700053684B6099608A60516008610168491C17
:10388000016030BD42684A6093688B6093685960FC
:10389000916008610168491C01607047502080F305
:1038A0001188BFF34F8FBFF36F8F0A494868401CE0
:1038B000486001280CD10848006810F0FF0F07D0BD
:1038C000502080F31188BFF34F8FBFF36F8FFEE757
:1038D000704700009000002004ED00E008494868AF
:1038E00028B1401E486001D180F3118870475020F4
:1038F00080F31188BFF34F8FBFF36F8FFEE7000097
:103900009000002070B5002827D0144DA0F10804C5
:103910006168E868014207D1502080F31188BFF345
:103920004F8FBFF36F8FFEE722683AB1502080F3CC
:103930001188BFF34F8FBFF36F8FFEE78143616044
:1039400000F07CF860686968084468602046FFF70A
:1039500053FEBDE8704000F001BA70BD7800002051
:103960004FF0E02000210161816105494FF47A7236
:103970000968B1FBF2F1491E4161072101617047FD
:103980003800002010B5020014D00F48806B38B109
:10399000502080F31188BFF34F8FBFF36F8FFEE786
:1039A00000F04CF800211046FFF7CAFC00F0D6F9F1
:1039B000002807D105494FF080500860BFF34F8FB2
:1039C000BFF36F8F10BD00003C00002004ED00E04D
:1039D00010B586B00024039405AA04A903A8049492
:1039E000FFF720FFDDE903010094CDE9011000237A
:1039F0000EA11048059A00F014F90F4900284863F9
:103A000011D0502080F31188BFF34F8FBFF36F8F19
:103A10004FF0FF3008630120C8614C6106B0BDE87B
:103A2000104000F041B806B010BD000049444C45BC
:103A300000000000013500083C0000200248816BB6
:103A4000491C8163704700003C0000201448816BD2
:103A500011B1012141627047002141628169B1FACF
:103A600081F1C1F11F0101EB81020E4951F82230B1
:103A70006BB101EB820101F108034A6852684A60A8
:103A80009A4201D152684A60D16801607047502063
:103A900080F31188BFF34F8FBFF36F8FFEE70000F5
:103AA0003C000020000D00201CB537480168374A53
:103AB000914207D1502080F31188BFF34F8FBFF39D
:103AC0006F8FFEE700683149491E884207D15020B8
:103AD00080F31188BFF34F8FBFF36F8FFEE72C4940
:103AE00008780190FF20087008788DF800009DF894
:103AF00000009DF8002000F0F000904207D0502018
:103B000080F31188BFF34F8FBFF36F8FFEE79DF8EF
:103B10000000204B00F0500018700720986005E06E
:103B20009DF8002052008DF80020401E9DF80020D6
:103B30001206F5D49860032807D0502080F311882E
:103B4000BFF34F8FBFF36F8FFEE74FF44070986065
:103B5000019808700C482030016841F47001016040
:103B6000016841F070410160FFF7FAFE00205860E3
:103B7000FCF738FB0848016841F040410160FCF760
:103B80001DFB00201CBD000000ED00E071C20F41D4
:103B900000E400E09000002034EF00E010B5502079
:103BA00080F31188BFF34F8FBFF36F8F00F072F86F
:103BB00018B104494FF080500860002080F311884C
:103BC00010BD000004ED00E02DE9FF5F8346DDE954
:103BD0000E87994616468A469000FFF757FD050066
:103BE0001CD05420FFF752FD040014D000202563A0
:103BF00084F85100CDE90240CDE900874B463246BA
:103C000051465846FFF7ACFC2046FFF7D1FB012098
:103C100004B0BDE8F09F2846FFF774FE4FF0FF3078
:103C2000F6E7F0B585B0DDE90B640A9DA6B1DCB11D
:103C3000542700972663022684F85160002604AFBB
:103C4000CDE90246CDE90057FFF78AFC2046FFF791
:103C5000AFFB049805B0F0BD502080F31188BFF38E
:103C60004F8FBFF36F8FFEE7502080F31188BFF3B3
:103C70004F8FBFF36F8FFEE70548C16919B1806BA5
:103C800018B10020704701207047022070470000E3
:103C90003C0000202DE9F0412E4C0027A06B40B1E4
:103CA000206A401C2062606A00B101273846BDE8E6
:103CB000F0816669761C666113D16068006838B16E
:103CC000502080F31188BFF34F8FBFF36F8FFEE753
:103CD0006068A1686160A060A06A401CA062FFF7F4
:103CE000B1FC206BDFF87080864209D36068006801
:103CF00080B16068C068C568686886420DD220637C
:103D00002068C06A00EB800158F821000128CAD958
:103D10000127C8E74FF0FF30F1E7281DFFF76EFDE0
:103D2000A86A18B105F11800FFF768FDE86A0121DB
:103D3000A26981401143A16100EB800108EB810081
:103D4000291DFFF79FFDE86A2168C96A8842CDD323
:103D50000127CBE73C000020000D00202DE9F047B3
:103D60002C4D00242746A86B38B1FFF797FDA86BB0
:103D7000401EA863A86B40B146E0502080F3118834
:103D8000BFF34F8FBFF36F8FFEE72969224E0120EB
:103D9000D1B3A6F1B40980463068E8B1F068C468D0
:103DA00004F11800FFF72AFD201DFFF727FDE06A48
:103DB000AA6908FA00F11143A96100EB800109EB3F
:103DC0008100211DFFF75EFDE06A2968C96A88420B
:103DD000E2D3C5F82480DFE70CB1FFF733FC2C6A8F
:103DE00044B14646FFF756FF00B16E62641EF9D13A
:103DF00000202862686A38B108490127380708603E
:103E0000BFF34F8FBFF36F8FFFF768FD3846BDE8F4
:103E1000F08700003C000020B40D002004ED00E01D
:103E20007C3E0008D91D00080000000000000000D2
:103E3000800000000000000000000000703E00084C
:103E4000611F0008FDFF000000000000800000006E
:103E50000000000000000000000000000000000062
:103E60000102030406070809000000000102030420
:103E70006D795461736B30320000000064656661D7
:103E8000756C745461736B00A83E0008000000203C
:103E9000D8000000DC260008803F0008D800002081
:103EA000484E0000EC260008000000000000000062
:103EB0000000000000000000000000000000000002
:103EC00000000000000000000000000000000000F2
:103ED00000000000010000001000000000000000D1
:103EE0000024F400000000000000000000000000BA
:103EF00000000000000000000000000000000000C2
:103F000000000000000000000000000000000000B1
:103F100000000000000000000000000000000000A1
:103F20000000000000000000000000000000000091
:103F3000000000000000000000000000AAAAAAAAD9
:103F40000000000000000000000000000000000071
:103F50000000000000000000000000000000000061
:103F60000000000000000000000000000000000051
:103F70000000000000000000000000000000000041
:040000050800018965
:00000001FF
